{
  "_format": "hh-sol-artifact-1",
  "contractName": "ConsentV4",
  "sourceName": "contracts/Consentv4.sol",
  "abi": [
    {
      "anonymous": false,
      "inputs": [
        {
          "indexed": true,
          "internalType": "address",
          "name": "company",
          "type": "address"
        },
        {
          "indexed": false,
          "internalType": "string",
          "name": "name",
          "type": "string"
        }
      ],
      "name": "CompanyRegistered",
      "type": "event"
    },
    {
      "anonymous": false,
      "inputs": [
        {
          "indexed": true,
          "internalType": "address",
          "name": "user",
          "type": "address"
        },
        {
          "indexed": true,
          "internalType": "address",
          "name": "recipient",
          "type": "address"
        },
        {
          "indexed": false,
          "internalType": "uint256",
          "name": "expiry",
          "type": "uint256"
        }
      ],
      "name": "ConsentGiven",
      "type": "event"
    },
    {
      "anonymous": false,
      "inputs": [
        {
          "indexed": true,
          "internalType": "address",
          "name": "user",
          "type": "address"
        },
        {
          "indexed": true,
          "internalType": "address",
          "name": "recipient",
          "type": "address"
        }
      ],
      "name": "ConsentRevoked",
      "type": "event"
    },
    {
      "inputs": [
        {
          "internalType": "address",
          "name": "_user",
          "type": "address"
        },
        {
          "internalType": "address",
          "name": "_recipient",
          "type": "address"
        }
      ],
      "name": "checkConsent",
      "outputs": [
        {
          "internalType": "bool",
          "name": "",
          "type": "bool"
        }
      ],
      "stateMutability": "view",
      "type": "function"
    },
    {
      "inputs": [
        {
          "internalType": "address",
          "name": "",
          "type": "address"
        }
      ],
      "name": "companyRegistry",
      "outputs": [
        {
          "internalType": "string",
          "name": "name",
          "type": "string"
        },
        {
          "internalType": "string",
          "name": "privacyUrl",
          "type": "string"
        },
        {
          "internalType": "bool",
          "name": "isRegistered",
          "type": "bool"
        }
      ],
      "stateMutability": "view",
      "type": "function"
    },
    {
      "inputs": [
        {
          "internalType": "address",
          "name": "",
          "type": "address"
        },
        {
          "internalType": "address",
          "name": "",
          "type": "address"
        }
      ],
      "name": "consents",
      "outputs": [
        {
          "internalType": "bool",
          "name": "isGiven",
          "type": "bool"
        },
        {
          "internalType": "uint256",
          "name": "expiryTimestamp",
          "type": "uint256"
        }
      ],
      "stateMutability": "view",
      "type": "function"
    },
    {
      "inputs": [
        {
          "internalType": "address",
          "name": "_company",
          "type": "address"
        }
      ],
      "name": "getCompanyDetails",
      "outputs": [
        {
          "internalType": "string",
          "name": "",
          "type": "string"
        },
        {
          "internalType": "string",
          "name": "",
          "type": "string"
        },
        {
          "internalType": "bool",
          "name": "",
          "type": "bool"
        }
      ],
      "stateMutability": "view",
      "type": "function"
    },
    {
      "inputs": [
        {
          "internalType": "address",
          "name": "_user",
          "type": "address"
        },
        {
          "internalType": "address",
          "name": "_recipient",
          "type": "address"
        }
      ],
      "name": "getConsentExpiry",
      "outputs": [
        {
          "internalType": "uint256",
          "name": "",
          "type": "uint256"
        }
      ],
      "stateMutability": "view",
      "type": "function"
    },
    {
      "inputs": [
        {
          "internalType": "address",
          "name": "_recipient",
          "type": "address"
        },
        {
          "internalType": "uint256",
          "name": "_durationSeconds",
          "type": "uint256"
        }
      ],
      "name": "giveConsent",
      "outputs": [],
      "stateMutability": "nonpayable",
      "type": "function"
    },
    {
      "inputs": [
        {
          "internalType": "string",
          "name": "_name",
          "type": "string"
        },
        {
          "internalType": "string",
          "name": "_url",
          "type": "string"
        }
      ],
      "name": "registerCompany",
      "outputs": [],
      "stateMutability": "nonpayable",
      "type": "function"
    },
    {
      "inputs": [
        {
          "internalType": "address",
          "name": "_recipient",
          "type": "address"
        }
      ],
      "name": "revokeConsent",
      "outputs": [],
      "stateMutability": "nonpayable",
      "type": "function"
    }
  ],
  "bytecode": "0x608060405234801561001057600080fd5b506111e8806100206000396000f3fe608060405234801561001057600080fd5b50600436106100885760003560e01c80639b04acaf1161005b5780639b04acaf1461013b578063ae83af5514610157578063c620c51a14610188578063d1a48627146101ba57610088565b80630558d3e91461008d57806316c94bd2146100bf5780631ab64e4b146100ef57806374448ba41461011f575b600080fd5b6100a760048036038101906100a29190610a61565b6101d6565b6040516100b693929190610b39565b60405180910390f35b6100d960048036038101906100d49190610b7e565b610384565b6040516100e69190610bd7565b60405180910390f35b61010960048036038101906101049190610b7e565b610456565b6040516101169190610bf2565b60405180910390f35b61013960048036038101906101349190610d42565b61053b565b005b61015560048036038101906101509190610de6565b610639565b005b610171600480360381019061016c9190610b7e565b610773565b60405161017f929190610e26565b60405180910390f35b6101a2600480360381019061019d9190610a61565b6107b1565b6040516101b193929190610b39565b60405180910390f35b6101d460048036038101906101cf9190610a61565b6108f8565b005b606080600080600160008673ffffffffffffffffffffffffffffffffffffffff1673ffffffffffffffffffffffffffffffffffffffff16815260200190815260200160002060405180606001604052908160008201805461023690610e7e565b80601f016020809104026020016040519081016040528092919081815260200182805461026290610e7e565b80156102af5780601f10610284576101008083540402835291602001916102af565b820191906000526020600020905b81548152906001019060200180831161029257829003601f168201915b505050505081526020016001820180546102c890610e7e565b80601f01602080910402602001604051908101604052809291908181526020018280546102f490610e7e565b80156103415780601f1061031657610100808354040283529160200191610341565b820191906000526020600020905b81548152906001019060200180831161032457829003601f168201915b505050505081526020016002820160009054906101000a900460ff1615151515815250509050806000015181602001518260400151935093509350509193909250565b6000806000808573ffffffffffffffffffffffffffffffffffffffff1673ffffffffffffffffffffffffffffffffffffffff16815260200190815260200160002060008473ffffffffffffffffffffffffffffffffffffffff1673ffffffffffffffffffffffffffffffffffffffff1681526020019081526020016000206040518060400160405290816000820160009054906101000a900460ff1615151515815260200160018201548152505090508060000151610447576000915050610450565b80602001519150505b92915050565b6000806000808573ffffffffffffffffffffffffffffffffffffffff1673ffffffffffffffffffffffffffffffffffffffff16815260200190815260200160002060008473ffffffffffffffffffffffffffffffffffffffff1673ffffffffffffffffffffffffffffffffffffffff1681526020019081526020016000206040518060400160405290816000820160009054906101000a900460ff1615151515815260200160018201548152505090508060000151610519576000915050610535565b806020015142111561052f576000915050610535565b60019150505b92915050565b604051806060016040528083815260200182815260200160011515815250600160003373ffffffffffffffffffffffffffffffffffffffff1673ffffffffffffffffffffffffffffffffffffffff16815260200190815260200160002060008201518160000190816105ad919061105b565b5060208201518160010190816105c3919061105b565b5060408201518160020160006101000a81548160ff0219169083151502179055509050503373ffffffffffffffffffffffffffffffffffffffff167f76686aa361308f4a08557cca1a847299ce61e5602a3495cd359a599a1dca438c8360405161062d919061112d565b60405180910390a25050565b60008142610647919061117e565b90506040518060400160405280600115158152602001828152506000803373ffffffffffffffffffffffffffffffffffffffff1673ffffffffffffffffffffffffffffffffffffffff16815260200190815260200160002060008573ffffffffffffffffffffffffffffffffffffffff1673ffffffffffffffffffffffffffffffffffffffff16815260200190815260200160002060008201518160000160006101000a81548160ff021916908315150217905550602082015181600101559050508273ffffffffffffffffffffffffffffffffffffffff163373ffffffffffffffffffffffffffffffffffffffff167f2f187c4a7e968f93bf4a9722d261af8f14966748773eedce80e4492d724298b6836040516107669190610bd7565b60405180910390a3505050565b6000602052816000526040600020602052806000526040600020600091509150508060000160009054906101000a900460ff16908060010154905082565b60016020528060005260406000206000915090508060000180546107d490610e7e565b80601f016020809104026020016040519081016040528092919081815260200182805461080090610e7e565b801561084d5780601f106108225761010080835404028352916020019161084d565b820191906000526020600020905b81548152906001019060200180831161083057829003601f168201915b50505050509080600101805461086290610e7e565b80601f016020809104026020016040519081016040528092919081815260200182805461088e90610e7e565b80156108db5780601f106108b0576101008083540402835291602001916108db565b820191906000526020600020905b8154815290600101906020018083116108be57829003601f168201915b5050505050908060020160009054906101000a900460ff16905083565b6000803373ffffffffffffffffffffffffffffffffffffffff1673ffffffffffffffffffffffffffffffffffffffff16815260200190815260200160002060008273ffffffffffffffffffffffffffffffffffffffff1673ffffffffffffffffffffffffffffffffffffffff168152602001908152602001600020600080820160006101000a81549060ff0219169055600182016000905550508073ffffffffffffffffffffffffffffffffffffffff163373ffffffffffffffffffffffffffffffffffffffff167febecee2d3f2ea272f73dd9d9ccc0bacd11280d61240332cbcd8a68173ae5cc2c60405160405180910390a350565b6000604051905090565b600080fd5b600080fd5b600073ffffffffffffffffffffffffffffffffffffffff82169050919050565b6000610a2e82610a03565b9050919050565b610a3e81610a23565b8114610a4957600080fd5b50565b600081359050610a5b81610a35565b92915050565b600060208284031215610a7757610a766109f9565b5b6000610a8584828501610a4c565b91505092915050565b600081519050919050565b600082825260208201905092915050565b60005b83811015610ac8578082015181840152602081019050610aad565b60008484015250505050565b6000601f19601f8301169050919050565b6000610af082610a8e565b610afa8185610a99565b9350610b0a818560208601610aaa565b610b1381610ad4565b840191505092915050565b60008115159050919050565b610b3381610b1e565b82525050565b60006060820190508181036000830152610b538186610ae5565b90508181036020830152610b678185610ae5565b9050610b766040830184610b2a565b949350505050565b60008060408385031215610b9557610b946109f9565b5b6000610ba385828601610a4c565b9250506020610bb485828601610a4c565b9150509250929050565b6000819050919050565b610bd181610bbe565b82525050565b6000602082019050610bec6000830184610bc8565b92915050565b6000602082019050610c076000830184610b2a565b92915050565b600080fd5b600080fd5b7f4e487b7100000000000000000000000000000000000000000000000000000000600052604160045260246000fd5b610c4f82610ad4565b810181811067ffffffffffffffff82111715610c6e57610c6d610c17565b5b80604052505050565b6000610c816109ef565b9050610c8d8282610c46565b919050565b600067ffffffffffffffff821115610cad57610cac610c17565b5b610cb682610ad4565b9050602081019050919050565b82818337600083830152505050565b6000610ce5610ce084610c92565b610c77565b905082815260208101848484011115610d0157610d00610c12565b5b610d0c848285610cc3565b509392505050565b600082601f830112610d2957610d28610c0d565b5b8135610d39848260208601610cd2565b91505092915050565b60008060408385031215610d5957610d586109f9565b5b600083013567ffffffffffffffff811115610d7757610d766109fe565b5b610d8385828601610d14565b925050602083013567ffffffffffffffff811115610da457610da36109fe565b5b610db085828601610d14565b9150509250929050565b610dc381610bbe565b8114610dce57600080fd5b50565b600081359050610de081610dba565b92915050565b60008060408385031215610dfd57610dfc6109f9565b5b6000610e0b85828601610a4c565b9250506020610e1c85828601610dd1565b9150509250929050565b6000604082019050610e3b6000830185610b2a565b610e486020830184610bc8565b9392505050565b7f4e487b7100000000000000000000000000000000000000000000000000000000600052602260045260246000fd5b60006002820490506001821680610e9657607f821691505b602082108103610ea957610ea8610e4f565b5b50919050565b60008190508160005260206000209050919050565b60006020601f8301049050919050565b600082821b905092915050565b600060088302610f117fffffffffffffffffffffffffffffffffffffffffffffffffffffffffffffffff82610ed4565b610f1b8683610ed4565b95508019841693508086168417925050509392505050565b6000819050919050565b6000610f58610f53610f4e84610bbe565b610f33565b610bbe565b9050919050565b6000819050919050565b610f7283610f3d565b610f86610f7e82610f5f565b848454610ee1565b825550505050565b600090565b610f9b610f8e565b610fa6818484610f69565b505050565b5b81811015610fca57610fbf600082610f93565b600181019050610fac565b5050565b601f82111561100f57610fe081610eaf565b610fe984610ec4565b81016020851015610ff8578190505b61100c61100485610ec4565b830182610fab565b50505b505050565b600082821c905092915050565b600061103260001984600802611014565b1980831691505092915050565b600061104b8383611021565b9150826002028217905092915050565b61106482610a8e565b67ffffffffffffffff81111561107d5761107c610c17565b5b6110878254610e7e565b611092828285610fce565b600060209050601f8311600181146110c557600084156110b3578287015190505b6110bd858261103f565b865550611125565b601f1984166110d386610eaf565b60005b828110156110fb578489015182556001820191506020850194506020810190506110d6565b868310156111185784890151611114601f891682611021565b8355505b6001600288020188555050505b505050505050565b600060208201905081810360008301526111478184610ae5565b905092915050565b7f4e487b7100000000000000000000000000000000000000000000000000000000600052601160045260246000fd5b600061118982610bbe565b915061119483610bbe565b92508282019050808211156111ac576111ab61114f565b5b9291505056fea2646970667358221220eabb32b0e0244b589024fec357c026f5dfa851a37dd1cee136932ac7188f7a5364736f6c63430008180033",
  "linkReferences": {},
  "deployedLinkReferences": {}
}